:100000006F00203E000000003201000034010000BB
:1000100000000000000000000000000000000000E0
:1000200000000000000000000000000000000000D0
:10003000E003000000000000E003000000000000FA
:10004000E0030000E0030000E0030000E003000024
:10005000E0030000E0030000E0030000E003000014
:10006000E0030000E0030000E0030000E003000004
:10007000E0030000E0030000E0030000E0030000F4
:10008000E0030000E0030000E0030000E0030000E4
:10009000E0030000E0030000E003000000000000B7
:1000A000511126C022C206C4828282441244A24058
:1000B00031018280634E050263C305042E86AA8542
:1000C0007D5515C285466378B6006356C0000606A6
:1000D0008606E36CB6FE014563E4C500918D558D3F
:1000E00085820582F5FA82808682C93F2E858282CA
:1000F0003305A04063D70500B305B040C1B7B305D1
:10010000B0408682653F3305A0408282868263C705
:100110000500634905005D372E858282B305B04036
:10012000E35B05FE3305A040513F3305B0408282BA
:10013000000001A001A0EFF2BFF637040020130772
:100140000400711113040400814426859305A00561
:100150003AC08D370247420541810AA3D96723136C
:10016000A4169384843E938707F909077914E39EC4
:10017000F4FC11011DBFB71602409C4E370601402A
:10018000617793E757009CCE5C427D178565F98FB8
:100190005CC2B717014003A607807D773D07798EC3
:1001A00023A0C78003A60780938505884D8E23A0D2
:1001B000C78003A6C7801366660023A6C780904E3B
:1001C0001366060190CE94433706F1FF7D16F18E3B
:1001D00094C3944337060B00D18E94C39443758F18
:1001E00098C398431367071198C38280B7160240DB
:1001F0009C4E056713070780D98F9CCE1306F01D10
:10020000B73601402394C6C21306703E2396C6C279
:1002100083D5C6C165767D166D8E239EC6C003D676
:10022000C6C19965938706C04D8E239EC6C003D66E
:10023000C6C18565518F42074183239EE6C003D71F
:1002400006C24D8F2390E6C203D646C42167598E5D
:100250002392C6C403D606C0136606082390C6C000
:1002600003D606C0136616002390C6C0896693861F
:10027000C6F32394D704DA274D8FDAA78280371785
:1002800002405C4BB7360140938606C493E71700E3
:100290005CCBB7070240F4C7B70600209386060080
:1002A000B4CB09679306400BB4C71307075BF8C3C9
:1002B000F84313671700F8C38280EFF27FDE653DD5
:1002C0003537753F8D3DB7170140B7060400370637
:1002D000020003A78780098B01CF984B558F98CBDD
:1002E00003A78780118B09CB984B518F98CBD5B73B
:1002F000984B13674700E5B7984B13672700FDB786
:10030000EFF21FDA371402401C403707FFF841456F
:1003100093E717001CC05C40F98F5CC01C40370796
:10032000F7FE7D17F98F1CC01C403707FCFF7D17B7
:10033000F98F1CC05C4041777D17F98F5CC0B7070F
:100340009F001CC40D221C4C93E707021CCCB7175E
:10035000014003A70740938607401377F7F023A0D7
:10036000E74003A707401367070823A0E740894732
:100370009CCAB7F7FF1F03C5477D9307F00F6304BF
:10038000F5007D89CD20B72702409843C176FD1640
:10039000719B98C398431367170098C3B71702401F
:1003A000D843D8C3D843758FD8C3D843B706000104
:1003B000D8C39843558F98C3984393166700E3DDDD
:1003C00006FED843B7160240719BD8C3D8431367C3
:1003D0002700D8C32147DC42B18BE39EE7FEF1B191
:1003E00001A0970100209381E141138101001305D1
:1003F0008047970500209385E5C017060020130667
:1004000066C063FAC5008322050023A055001105CC
:100410009105E3EAC5FE170500201305A5BE9385E7
:1004200081966377B500232005001105E36DB5FEC5
:10043000B722000093820288739002308D4273903D
:100440004280970200009382E2BB93E232007390F5
:100450005230EFF0FFEA97020000938242E6739079
:10046000123473002030371702401C430E0593F7F7
:0804700077F05D8D08C3828066
:00000001FF
